:020000040000FA
:10000000980E0020E9020000090300000B03000025
:1000100000000000000000000000000000000000E0
:100020000000000000000000000000000D030000C0
:1000300000000000000000000F030000110300009A
:10004000F5050000AD180000590E0000750E000007
:10005000990E0000D50E00001913000009140000CD
:10006000311700003D170000A1170000051800001F
:10007000691800009518000055150000991500003A
:10008000DD15000021160000AD0F0000ED0F00008F
:100090001106000013030000130300001303000007
:1000A000FD120000130300008D1200002D1000004F
:1000B000F9140000150500001303000019150000D5
:1000C00000F002F800F03EF80CA030C80838241800
:1000D0002D18A246671EAB4654465D46AC4201D180
:1000E00000F030F87E460F3E0FCCB6460126334274
:1000F00000D0FB1AA246AB46334318470C1B000046
:100100002C1B0000103A02D378C878C1FAD85207E5
:1001100001D330C830C101D504680C6070470000BD
:100120000023002400250026103A01D378C1FBD813
:10013000520700D330C100D50B6070471FB51FBDFB
:1001400010B510BD00F0B2F91146FFF7F7FF01F04E
:10015000FEFB00F0CAF903B4FFF7F2FF03BC00F0A6
:10016000D1F900008D4601608E4641608F46816066
:10017000046145618661C7618846016289464162C2
:100180008A4681628B46C162EFF30384C460EFF359
:100190001084046370470168694641687146C1680C
:1001A00081F30388016B81F31088046945698669CE
:1001B000C769016A4146416A4946816A5146C16A36
:1001C0005946816802B401207047014801686946B8
:1001D0001C0100200168694603480168016003486A
:1001E00001680348016072B600E100E000E200E04F
:1001F00020010020034908600348016803480160AA
:1002000062B6000000E100E02001002000E200E012
:10021000044801680448016004480168044801601A
:1002200072B6000000E100E02201002000E200E0E0
:100230002401002004480168044801600448016862
:100240000448016062B600002201002000E100E0E5
:100250002401002000E200E0044801680448016035
:10026000044801680448016072B6000000E100E043
:100270002601002000E200E0280100200448016877
:1002800004480160044801680448016062B6000047
:100290002601002000E100E02801002000E200E04B
:1002A000044801680448016004480168044801608A
:1002B00072B6000000E100E02A01002000E200E048
:1002C0002C010020044801680448016004480168CA
:1002D0000448016062B600002A01002000E100E04D
:1002E0002C01002000E200E00D480E4901600E499B
:1002F00001600E4901600E4A0E4911600021016043
:100300000D4880470D480047FEE7FEE7FEE7FEE7A1
:10031000FEE7FEE70A480B49094A0B4B704700000D
:100320000001005059000000160000008800000085
:1003300024000050A55A00002F170000C100000043
:10034000980A0020980E0020980A00200022030935
:100350008B422CD3030A8B4211D300239C464EE0E0
:1003600003460B433CD4002243088B4231D303099C
:100370008B421CD3030A8B4201D394463FE0C3094E
:100380008B4201D3CB01C01A524183098B4201D366
:100390008B01C01A524143098B4201D34B01C01A51
:1003A000524103098B4201D30B01C01A5241C308C9
:1003B0008B4201D3CB00C01A524183088B4201D338
:1003C0008B00C01A524143088B4201D34B00C01A24
:1003D0005241411A00D201465241104670475DE039
:1003E000CA0F00D04942031000D3404253400022BC
:1003F0009C4603098B422DD3030A8B4212D3FC2265
:10040000890112BA030A8B420CD3890192118B42E3
:1004100008D3890192118B4204D389013AD09211F9
:1004200000E08909C3098B4201D3CB01C01A5241B4
:1004300083098B4201D38B01C01A524143098B427D
:1004400001D34B01C01A524103098B4201D30B0166
:10045000C01A5241C3088B4201D3CB00C01A52418B
:1004600083088B4201D38B00C01A5241D9D2430872
:100470008B4201D34B00C01A5241411A00D20146AF
:10048000634652415B10104601D34042002B00D519
:100490004942704763465B1000D3404201B50020DB
:1004A000C046C04602BD704770477047754600F0B1
:1004B00025F8AE46050069465346C008C00085468B
:1004C00018B020B5FFF726FF60BC00274908B646E4
:1004D0000026C0C5C0C5C0C5C0C5C0C5C0C5C0C553
:1004E000C0C5403D49008D46704710B50446C04622
:1004F000C0462046FFF72FFE10BD000000487047A1
:10050000380A002001491820ABBEFEE72600020091
:100510007047000070B5154C206B154E154DC00787
:1005200009D02968002901D030688847206BC008AD
:10053000C000401C2063206B800709D56968002932
:1005400001D070688847206BC008C000801C206301
:10055000206B400709D5A968002901D0B0688847F9
:10056000206BC008C000001D206370BD00000E405D
:10057000480200200000002041681F228968511AAB
:10058000064AC9008918002202600A68002A03D0BE
:100590004A681060486070470860FBE72808002040
:1005A000F8B5134C0146206900281ED0026822616C
:1005B00041608B681F22D21AD3082546560714358E
:1005C0000122760F1746B740ED5C26463D431436B0
:1005D000F5540B891F21C91AC9088A4021780A439A
:1005E0002270FFF7C9FF0020F8BD0420F8BD00000D
:1005F000300100200520000781691022114381612C
:1006000002480068002800D0004770476C000020B6
:1006100070B5234D29690120C003224C814224D1A9
:100620006868C00608D5686810218843686021683A
:10063000002901D0002088476868000708D568684D
:100640000821884368606168002901D0002088473C
:100650006868400604D5A168002901D000208847B9
:10066000686800060FD5E16815E0286900280BD0FE
:1006700028692169C0B2002900D088472869401E36
:10068000C0B200F053F870BD0748C16A0129FAD121
:100690000021C16261690029F5D00020884770BD42
:1006A000000018405402002040011840F3B581B00A
:1006B00000270198FF430D46022812D3002D10D0C9
:1006C000094E0124294661430198FFF73FFE811E30
:1006D000B14203D2641E21060843FEBD641CFF2CF8
:1006E000F0D93846FEBD0000FEFFFF0070B50500E2
:1006F00001D0032070BDFFF76FFD0B4909488B68DF
:1007000004884A6800209A4201D1486001E0521CE6
:100710004A60284601F026F92046FFF76BFD0020CD
:1007200070BD00001E0100201404002010B5044616
:1007300000F0F2FBC1B2022909D060204143054814
:100740000C2209184A62641C0C62002010BD024889
:1007500010BD0000000018408685FFFFF0B50124A1
:100760000146283927468F4005210F250326090712
:10077000E14A030001F0CCF83E20262E34384447ED
:10078000474F565E61676F75798285899195989D0F
:10079000A9A4A4A4A4A4A4A0AFB3B9BDC5CED8E015
:1007A000F2F9EFEFEFEFEFEFEEEDECEBEAEDEDEC62
:1007B000ECEBEBEAEAE9E8E70020086348638863CA
:1007C000C8634CE1486B01231B031843486310695D
:1007D000991050E0086B03221202104308633FE1B6
:1007E000086B03239B02F8E0886B28438863086B3F
:1007F0000123DB031843086310691F214901BAE094
:10080000C86BC022DFE0062800D00E208B6B86402C
:1008100033438B63FBE0886B284388631069FF21B7
:10082000E131DCE0486B01239B0218434863106907
:100830002043D5E0886B302210E0886B0F231B0229
:1008400018438863E3E0486B01235B021843486365
:10085000106902218FE0886B032212031043886322
:10086000FEE0C86B2843C863FAE0086B8023184396
:1008700008631069042108431061C8E0C86B302286
:10088000A1E0CA6B0F20000210E0486B01239B031C
:1008900018434863106908216DE0C86B03221203F6
:1008A00091E0886B2843DAE7CA6B02200243CA63EF
:1008B000D6E0C86B042286E013690425AB431361BC
:1008C00013690125ED02AB4313610A6B17388440AD
:1008D00022430A63C4E013690825AB4313614A6BE2
:1008E0001138844022434A63BAE0486BFF22013248
:1008F000FDE0486B01235B02184348631169022045
:100900000FE0486B01239B021843486310694008BD
:10091000400065E0486B0123DB021843486311691E
:100920001020814311619BE0486B0123DB031843D6
:100930004863106959021EE01068202108431060C6
:100940001069090517E0D4E091E0A1E080E062E0E1
:1009500048E03AE034E010E007E0FFE7486B0423AA
:10096000184348631069190605E0486B08231843CB
:10097000486310691906084332E00346293B022BFD
:1009800001D8002300E0042329280AD02C2808D00D
:100990002A280AD02D2808D02B280BD02E2809D0A1
:1009A0005EE0486B9D40284308E0486B9E40304322
:1009B000486355E0486B9B1C9E403043486326E0EB
:1009C000C86B0322920310434DE73028086B02D016
:1009D000384308631BE003231B031843F9E78843EC
:1009E00010613DE0312808D00B6B3B430B63362888
:1009F0000DD0106901214902F1E7086B03239B0325
:100A000018430863106901214902884334E71069DB
:100A10000121C902E3E7322806D0382810D0116836
:100A20002020014311601BE0486B0123DB021843C7
:100A300048631069102108431061106820210DE0FF
:100A4000486B0123DB02184348631069102192E7C9
:100A5000332807D03A28106807D0022108431060D5
:100A60000020F0BD10683043F9E72043F7E7486BFA
:100A70000C23184348631069DB0218431061086BAC
:100A80001E4B184308631069FF231B04184312E030
:100A90003C2811D1486B0C23984348631069DB0252
:100AA00098431061086B154BDB43184008631069CD
:100AB000FF231B049843106110690323DB021843D2
:100AC0001061886BFF22013210438863086B5A1053
:100AD000104308634A6BC02002434A630A6B024317
:100AE0000A63886B064A10438863486B5A001043B8
:100AF0005EE70448F0BD0000400000503E7000007A
:100B0000C0C000000189FFFF00487047001BB7000C
:100B100010B5124C2069400716D020694007400FDD
:100B2000012813D020694007400F022811D0206906
:100B30004007400F03280FD00948A1690907090F92
:100B4000491CFFF703FC10BD0648F6E70120C0036F
:100B5000F3E700F00BF8F0E70348EEE7000200507F
:100B600000805101001BB700102700001FB512497B
:100B700000201EC903946C460EC4104C216A090360
:100B800001D50F4A00E00F4A216AC90312D4206A36
:100B90008004C10E206A891CC005C00D801C504312
:100BA000FFF7D4FB216A6A460904890F890051586E
:100BB000FFF7CCFB04B010BDAC1B000000020050DE
:100BC00000805101001BB70010B5002807D0012894
:100BD00005D0022803D0032801D00D4810BD0D4ACE
:100BE000810051580C4A89180A6801235B071A438F
:100BF0000A60083040B20221044600F00BFBE10617
:100C0000C90E0120884005490860002010BD000081
:100C10000197FFFFBC1B00000000014000E100E065
:100C200003480121016041608160C160704700009C
:100C300074000020F7B50E46029907460025CC0641
:100C40000120714A2946002F06D0012F30D0022FF3
:100C50005BD0032F7ED18DE06C4B1B68012B7AD1CA
:100C60006A4B1B69002B76D1684B1861664A926803
:100C700004231A43644B9A60654A116093680343E6
:100C800093600020142203465343624A401CD15013
:100C9000F8D05E4801630665002000F04FF9314648
:100CA000FFF704FD411C6FD00202120A58495BE0B5
:100CB000564B5B68012B65D1544B5B69002B61D1AE
:100CC000524B5861504A926808231A434E4B9A601F
:100CD0004F4A1162936A0343936200201422034631
:100CE00053434C4A1432D150401CF7D0474841631B
:100CF0004665012000F022F93146FFF7D7FC411C80
:100D000070D00202120A424962E0404B9B68012BFC
:100D100038D13E4B9B69002B34D13C4B012098616C
:100D200090681023184390603B480160826801235B
:100D30001A4382600020142203465343354A283266
:100D4000D150401CF7D0314881638665022000F005
:100D5000F5F801E055E015E03146FFF7A7FC411C2E
:100D600040D002022C49120A4A60000E2843204358
:100D7000086032E0254BDB68012B03D1234BDB6994
:100D8000002B02D02548FEBD2CE020480123C36182
:100D900090682023184390601F480162836A0122F3
:100DA000134383621B4B00203C331422424399506F
:100DB000401CFAD01548C163C665032000F0BEF898
:100DC0003146FFF773FC411C0CD002021249120A93
:100DD0004A62000E2843204308620298022804D089
:100DE0000020D0E70D48401ECDE7002F05D0012F91
:100DF00003D0022F01D0032F03D12137F8B2FFF720
:100E0000ADFC0648801EBEE70002005074000020C2
:100E100000000140A8030020000011400397FFFFDD
:100E2000002807D0012805D0022803D0032801D0CC
:100E3000064870470649800008580649401801686E
:100E40000122920711430160002070470197FFFFC4
:100E5000BC1B00000000014001200449800308621F
:100E600003488068002800D0004770474040005089
:100E70000C00002001200449C00308620348C06838
:100E8000002800D000477047404000500C00002070
:100E900070477047704770470C4982B0086A0190EC
:100EA0000A484030026A03239B039A430092019A46
:100EB0000A620099016206480268002A03D000997C
:100EC000019802B0104702B0704700000040005087
:100ED0000C0000200E4A84B0106A02900C4840308A
:100EE000016A01910A4980310B6A0093029B1362E7
:100EF000019A02620098086206484368002B04D0F9
:100F0000009A0199029804B0184704B07047000095
:100F1000804000500C0000200748006A000401D403
:100F200000207047044880300068000401D401208C
:100F30007047022070470000000018401CB50021D7
:100F40000091002807D0012805D0022803D00328EB
:100F500001D013481CBD1349496980000830C140C5
:100F60004807400F69460871087900280BD00879B6
:100F700001280BD0087902280CD0087907280CD05A
:100F80000748401C1CBDFFF7BFFD01E00120C00366
:100F900000901CBDFFF7BCFDFAE70348F8E700002E
:100FA0000197FFFF000200500080510130B40D4A4C
:100FB000D0685169CB070C4905D0536901242343FC
:100FC0005361C96806E0002808D0382801D00968B4
:100FD00000E04968002903D030BC08478968F9E778
:100FE00030BC7047000002406C02002030B40D4A53
:100FF000D0685169CB070C4905D0536901242343BC
:101000005361C96806E0002808D0382801D0096873
:1010100000E04968002903D030BC08478968F9E737
:1010200030BC7047000012407C02002010B52E4CEE
:10103000E0682E49420735D5C20309D5A268D2051A
:1010400006D5C968002900D08847012000040AE0BD
:1010500082030AD5A268920507D50969002900D044
:10106000884701204004E06010BD420209D5A26813
:10107000120506D58969002900D08847012080051E
:10108000F1E7020209D5A268D20406D5C969002990
:1010900000D088470120C005E5E7A2685205E3D5E6
:1010A00049691DE08207DFD5C20509D5A268D207CC
:1010B00006D00968002900D08847FF200130D2E718
:1010C000820509D5A268920706D54968002900D093
:1010D000884701204002C6E7A2685207C4D5896844
:1010E0000029C1D0884710BD00001A408C020020A2
:1010F000002070474548826881010A4382600520CC
:101100000007C2680A43C260C2688A43C260C16BFA
:10111000FF2201321143C163C16B52001143C1630D
:10112000C26B0121C9020A43C263394AD06803680D
:101130000B430360D0680168F8239943483101608C
:10114000D0680168042319430160D0684168090C24
:101150000904C91C4160D068816889088900491C5C
:101160008160D068EB210162036801210B430360B9
:10117000D0680368DB07FCD183689B089B00836011
:10118000D06883689B089B005B1C8360D0688123C8
:10119000036203680B430360D0680368DB07FCD17C
:1011A000A023036203680B430360D0680368DB0776
:1011B000FCD183689B089B008360D06883689B0890
:1011C0009B005B1C8360D068C023036203680B43F1
:1011D0000360D0680368DB07FCD183689B089B0031
:1011E0008360D06883689B089B005B1C8360D06829
:1011F000AF23036203680B430360D0680168C9072B
:10120000FCD1816889088900816070470002005024
:10121000E40000208307FF22DB0E9A408907090EB5
:10122000994000280BDA0007000F083883080848A7
:101230009B001818C36993430B43C361704783082D
:1012400004489B001818036893430B4303607047DE
:1012500000ED00E000E400E010B5FFF7E1FC074816
:10126000012241680020FFF7E5FC0020FFF7ACFCFD
:10127000FFF740FF00F059FB10BD0000F400002014
:1012800010B50020FFF7CCFD10BD00007CB500209C
:1012900000901748C068174E174C01250190009820
:1012A000009A0002801929469140019A114219D0F2
:1012B000416AC907416A06D02943416200980C215E
:1012C000484321580AE089070CD5416A022211439C
:1012D000416200980C21484300194168002901D05F
:1012E000002088470098401C00900928D7DB7CBD6F
:1012F000008F005000800050AC0200200449C869F3
:101300000322CA6103490968002900D008477047D1
:10131000000010401C000020F8B5364D6C68364EB9
:10132000E00705D0012068603068002800D08047C1
:10133000A00705D502206860B068002800D080476B
:10134000600705D5042068603069002800D0804718
:10135000200705D508206860B069002800D08047C4
:101360002F696C69F8060FD52448006800282869A1
:1013700002D02349084002E0012109058843286181
:101380007068002800D08047F8021E4F0DD51B481A
:1013900000680028286901D0384001E01021884306
:1013A0002861F068002800D08047E0060FD5134878
:1013B00000680028686902D01149084002E0012154
:1013C0000905884368617069002800D08047E00201
:1013D0000FD50A480068002803D068693840686162
:1013E00003E06969102081436961F069002800D039
:1013F0008047F8BD40000440180300202000002072
:101400001F000F000F001F00F8B5364D6C68364EF8
:10141000E00705D0012068603068002800D08047D0
:10142000A00705D502206860B068002800D080477A
:10143000600705D5042068603069002800D0804727
:10144000200705D508206860B069002800D08047D3
:101450002F696C69F8060FD52448006800282869B0
:1014600002D02349084002E0012109058843286190
:101470007068002800D08047F8021E4F0DD51B4829
:1014800000680028286901D0384001E01021884315
:101490002861F068002800D08047E0060FD5134887
:1014A00000680028686902D01149084002E0012163
:1014B0000905884368617069002800D08047E00210
:1014C0000FD50A480068002803D068693840686171
:1014D00003E06969102081436961F069002800D048
:1014E0008047F8BD40001440380300202000002051
:1014F0001F000F000F001F00054801684022114324
:10150000016004484068002800D000477047000090
:10151000000200506C00002070B50C4DE86A0C4CC5
:10152000800708D50220E862E068401CE06060683F
:10153000002800D08047E86AC00705D00120E86293
:10154000A068002800D0804770BD000000800040E7
:101550002400002070B50E4C20680E4DC00309D544
:10156000206801210904084320606968002901D02E
:10157000A8688847E06B000509D5E06B0121C90226
:101580000843E063E968002901D02869884770BDF5
:10159000000003405803002070B50E4C20680E4D2B
:1015A000C00309D520680121090408432060A96906
:1015B000002901D0E8698847E06B000509D5E06B98
:1015C0000121C9020843E063296A002901D0686A41
:1015D000884770BD004003405803002070B50E4C92
:1015E00020680E4DC00309D5206801210904084375
:1015F0002060E96A002901D0286B8847E06B00056C
:1016000009D5E06B0121C9020843E063696B002939
:1016100001D0A86B884770BD00001340580300201C
:1016200070B50E4C20680E4DC00309D5206801210D
:10163000090408432060296C002901D0686C8847A0
:10164000E06B000509D5E06B0121C9020843E063A6
:10165000A96C002901D0E86C884770BD0040134098
:101660005803002010B5214BDA689468A408A40040
:10167000641C9460B0221043DA6810621068012480
:1016800020431060D8680268D207FCD182689208B3
:1016900092008260D868826892089200521C826030
:1016A0000A09D86810320262026822430260D868D0
:1016B0000268D207FCD18268920892008260D868E2
:1016C000826892089200521C82600907D868090F4C
:1016D0000162016821430160D8680168C907FCD133
:1016E000816889088900816010BD0000E400002045
:1016F00062B60B49087000F01BFA00F0A5F900F083
:101700008DF900F075F907480749806D0860FFF70B
:10171000EFFC00F00BF800F0C7F972B6FEE700002E
:1017200008010020A80800203401002070477047FD
:1017300010B50020FEF7DAFF10BD000010B5154807
:10174000016A01228900002905DA816AC90702D0ED
:10175000816A11438162416B090708D5416B890693
:1017600005D5816BC90702D0816B114381630A499A
:10177000486B401C4863094C2068002808D0A068CA
:10178000401EA06004D1E168206988476068A060BD
:1017900010BD00000000014074000020BC030020C8
:1017A00010B51548016801228900002905DA816811
:1017B000C90702D08168114381604169090708D5D2
:1017C0004169890605D58169C90702D0816911433C
:1017D00081610A49886B401C8863094C2068002895
:1017E00008D0A068401EA06004D1E1682069884745
:1017F0006068A06010BD000000001140740000206F
:10180000D003002010B51548016A01228900002983
:1018100005DA816AC90702D0816A11438162416B8E
:10182000090708D5416B890605D5816BC90702D028
:10183000816B114381630A49C86B401CC863094C22
:101840002068002808D0A068401EA06004D1E1688C
:10185000206988476068A06010BD0000000011404A
:1018600074000020E403002070B50748C0690749F0
:10187000CC69074D2968002900D08847A96800294C
:1018800001D02046884770BD00000540004015404B
:10189000D80000200348C06903494968002900D0E6
:1018A0000847704700001540D8000020094882B062
:1018B00001688906C90F009101680822114301607F
:1018C0000548016E002902D0009802B0084702B016
:1018D0007047000000400040740000200B4AD168AF
:1018E0008B689B089B005B1C8B60FF30D1680130CC
:1018F00008620868012318430860D0680168C907B6
:10190000FCD181688908890081607047E40000206B
:1019100030B47446641E2578641CAB4200D21D4668
:10192000635D5B00E31830BC184730B500242146E6
:101930002046FFF797FE21256D010020FFF7CEFF1F
:10194000641CAC42F9DB0F20FFF7C8FF30BD10B5B7
:10195000FFF782FCFFF794FC62B60020FFF7C8FE99
:10196000002010BD70B5142148430A4900254618CF
:10197000346807E03146204600F00EF8FF2800D119
:1019800001252468002CF5D1002D01D000F08CF841
:1019900070BD00001404002070B50D460446C068F8
:1019A0006A680021904213D16069142148430F49AD
:1019B000401800F051F80146206900280AD06A68F2
:1019C0001018E060AA68904202D9801A401EE060B8
:1019D000084670BD05CC083C10602068002801D086
:1019E0006268426000206060F2E700002809002081
:1019F00030B5084B084C0020C2001C21414312198D
:101A0000C91824CA8D614A61401C89600128F3DB32
:101A100030BD0000F80300200001002070B5084B25
:101A2000084C00200C224243142141431219C918CA
:101A300064CA083164C1401C0128F3DB70BD00009A
:101A400014040020F4000020024901480880704777
:101A5000080800201001002010B504460078032873
:101A600001D0042010BD2046FEF79AFD0428F9D0CD
:101A700006200B4920704868022240680223A25EBB
:101A8000C35E9A4208DD007B400605D40548006825
:101A9000002803D00120C860002010BDFF2010BD29
:101AA000300100200C01002070B51D4EB0680028E8
:101AB00030D11C48006800282CD1324630781832CA
:101AC000105C131FC100185C7568105C0143C800EE
:101AD000154908587060446885421BD068680069E1
:101AE000FEF740FB002815D16868017B090604D485
:101AF00000690E49008820380880207841070AD5FF
:101B0000FB2108402070FEF760FB72B670684068E9
:101B10004068804770BD2069FEF73DFB70BD000046
:101B2000300100200C010020280800201C010020AA
:101B3000F8B51B4B002098601A4A1870C1008C1829
:101B40000834401C54500428F8D3164C0025E83CB7
:101B5000154E1F271A610C206843801902684168DE
:101B600080686260A160E060781A6080207B000776
:101B700004D52046FEF714FD062000E00320207067
:101B80001A200849684384394018206114346D1CB8
:101B9000052DE0D303480221A8380174F8BD0000E8
:101BA00030010020100A0020CC1B000001000000C2
:101BB000020000000200000004000000000000001D
:101BC000200000000000100020001000970E000010
:101BD0000000000008000000910E0000040000005A
:101BE00008000000930E0000020000000800000042
:101BF000950E000003000000080000000000000037
:101C00000400000008000000281C00000000002064
:101C10004802000004010000701E0000480200207D
:101C2000500C000020010000000000000000000037
:101C300000000000000000000000000000000000A4
:101C40000000000000000000000000000000000094
:101C50000000000000000000000000000000000084
:101C60000000000000000000000000000000000074
:101C70000000000000000000000000000000000064
:101C80000000000000000000000000000000000054
:101C90000000000000000000000000000000000044
:101CA0000000000000000000000000000000000034
:101CB0000000000000000000000000000000000024
:101CC0000000000000000000000000000000000014
:101CD0000000000000000000000000000000000004
:101CE00000000000000000000000000000000000F4
:101CF00000000000000000000000000000000000E4
:101D00000000000000000000000000000000034090
:101D1000004013400000134000401340FF7F0000CC
:101D200001000000010000000400000000000000AD
:101D300000000000000000000000000000000000A3
:101D40000000000000000000000000000000000093
:101D50000000000000000000000000000000000083
:101D60000000000000000000000000000000000073
:101D70000000010102020202030303030303030341
:101D80000404040404040404040404040404040413
:101D900005050505050505050505050505050505F3
:101DA00005050505050505050505050505050505E3
:101DB00006060606060606060606060606060606C3
:101DC00006060606060606060606060606060606B3
:101DD00006060606060606060606060606060606A3
:101DE0000606060606060606060606060606060693
:101DF0000707070707070707070707070707070773
:101E00000707070707070707070707070707070762
:101E10000707070707070707070707070707070752
:101E20000707070707070707070707070707070742
:101E30000707070707070707070707070707070732
:101E40000707070707070707070707070707070722
:101E50000707070707070707070707070707070712
:101E60000707070707070707070707070707070702
:04000005000002E90C
:00000001FF
