:020000040000FA
:10000000301500201103000031030000330300000D
:1000100000000000000000000000000000000000E0
:100020000000000000000000000000003503000098
:10003000000000000000000037030000390300004A
:10004000090700005D2800008D150000B1150000B3
:10005000BD16000001170000791E0000F51F00000A
:1000600025250000B925000055260000F1260000D6
:10007000012800003D280000092200006D22000038
:10008000D122000035230000F51700007118000090
:10009000310700003B0300003B0300003B0300006E
:1000A000511E00003B030000A91D0000ED180000D8
:1000B00071210000890500003B0300009921000028
:1000C00000F002F800F040F80CA030C808382418FE
:1000D0002D18A246671EAB4654465D46AC4201D180
:1000E00000F032F87E460F3E0FCCB6460126334272
:1000F00000D0FB1AA246AB4633431847902E0000AF
:10010000B02E0000103A02D378C878C1FAD852074E
:1001100001D330C830C101D504680C6070470000BD
:100120000023002400250026103A01D378C1FBD813
:10013000520700D330C100D50B6070471FB5C046D1
:10014000C0461FBD10B510BD00F0EDF91146FFF718
:10015000F5FF02F035FC00F005FA03B4FFF7F2FFFB
:1001600003BC00F009FA0000EFF30881016071465A
:10017000416079468160046145618661C76141469D
:10018000016249464162514681625946C16200207E
:100190007047016881F3088841688E4604694569A3
:1001A0008669C769016A8846416A8946816A8A46C2
:1001B000C16A8B46012070470148016881F30888B5
:1001C000B803002080F308880348016801600348F1
:1001D00001680348016072B600E100E000E200E05F
:1001E000C403002003490860034801680348016014
:1001F00062B6000000E100E0C403002000E200E07D
:10020000044801680448016004480168044801602A
:1002100072B6000000E100E0C803002000E200E048
:10022000CC030020044801680448016004480168C8
:100230000448016062B60000C803002000E100E04D
:10024000CC03002000E200E004480168044801609B
:10025000044801680448016072B6000000E100E053
:10026000D003002000E200E0D4030020044801682D
:1002700004480160044801680448016062B6000057
:10028000D003002000E100E0D403002000E200E001
:10029000044801680448016004480168044801609A
:1002A00072B6000000E100E0D803002000E200E0A8
:1002B000DC03002004480168044801600448016828
:1002C0000448016062B60000D803002000E100E0AD
:1002D000DC03002000E200E070B505460C4616463F
:1002E00002E00FCC0FC5103E102EFAD2082E02D31A
:1002F00003CC03C5083E042E07D301CC01C5361F2D
:1003000003E021782970641C6D1C761EF9D270BD43
:100310000D480E4901600E4901600E4901600E4A08
:100320000E491160002101600D4880470D480047CB
:10033000FEE7FEE7FEE7FEE7FEE7FEE70A480B49B9
:10034000094A0B4B704700000001005059000000A3
:10035000160000008800000024000050A55A00008C
:1003600021250000C10000003011002030150020C0
:1003700030110020D2B210B513029A1813049A1843
:1003800000F0BEF810BD002203098B422CD3030AF3
:100390008B4211D300239C464EE003460B433CD4D2
:1003A000002243088B4231D303098B421CD3030A3A
:1003B0008B4201D394463FE0C3098B4201D3CB016A
:1003C000C01A524183098B4201D38B01C01A52419A
:1003D00043098B4201D34B01C01A524103098B429E
:1003E00001D30B01C01A5241C3088B4201D3CB0089
:1003F000C01A524183088B4201D38B00C01A52416C
:1004000043088B4201D34B00C01A5241411A00D21B
:1004100001465241104670475DE0CA0F00D0494284
:10042000031000D34042534000229C4603098B42F4
:100430002DD3030A8B4212D3FC22890112BA030A7C
:100440008B420CD3890192118B4208D389019211FE
:100450008B4204D389013AD0921100E08909C30983
:100460008B4201D3CB01C01A524183098B4201D385
:100470008B01C01A524143098B4201D34B01C01A70
:10048000524103098B4201D30B01C01A5241C308E8
:100490008B4201D3CB00C01A524183088B4201D357
:1004A0008B00C01A5241D9D243088B4201D34B0072
:1004B000C01A5241411A00D20146634652415B10B4
:1004C000104601D34042002B00D549427047634695
:1004D0005B1000D3404201B50020C046C04602BDBB
:1004E00070477047704701E004C0091F0429FBD220
:1004F0008B0701D50280801CC90700D002707047AD
:1005000000290BD0C30702D00270401C491E0229EB
:1005100004D3830702D50280801C891EE3E70022F2
:10052000EEE70022DFE7754600F022F8AE46050050
:1005300069465346C008C000854618B020B5FFF78D
:10054000FDFE60BC00274908B6460026C0C5C0C5F0
:10055000C0C5C0C5C0C5C0C5C0C5C0C5403D4900B7
:100560008D4670470446C046C0462046FFF7F5FD5D
:1005700000487047D010002001491820ABBEFEE7AC
:10058000260002007047000010B52148006BC0072C
:10059000C00F00280FD01F480068002804D01E4953
:1005A00008681C49096888471948006BC008C000E2
:1005B000401C174908631648006B8007C00F0028CD
:1005C0000FD016480068002804D013494868134922
:1005D000096888470E48006BC008C000801C0C49A1
:1005E00008630B48006B4007C00F00280FD00C4871
:1005F0000068002804D008498868094909688847C4
:100600000348006BC008C000001D0149086310BD0D
:1006100000000E400000002004050020040000201F
:1006200008000020F8B50546032D01D90320F8BDC8
:10063000282068430D494618FFF7C6FD0C4800887E
:1006400087B2304602F090FA0446FF2C02D102F045
:10065000D1FA06E0002C04D03846FFF7C3FD20464F
:10066000E5E73846FFF7BEFD0020E0E7B40E0020C6
:10067000C003002018234268D35EDA00064BD1186D
:10068000002202600A68002A01D1086001E04A687D
:100690001060486070470000B40D002070B504463B
:1006A00016480068002827D01448056800680068CC
:1006B000124908606C6000BF1821615EC8101049C3
:1006C000085C217E4A07520F012191400843C1B2C4
:1006D0001822A25ED0100A4A1154208BC1100120AA
:1006E00088400849097808430649087000BF284631
:1006F000FFF7C0FF002070BD0420FCE7EC030020E2
:10070000F0030020F403002010B5052000078069E5
:1007100010218843103005210907886103480068CB
:10072000002802D001480068804710BD74000020F6
:1007300010B5384800690121C903884244D13548C1
:100740004068C006C00F00280DD032484068102114
:1007500088433049486030480068002803D02E485C
:100760000168002088472B4840680007C00F002818
:100770000DD028484068082188432649486026480B
:100780004068002803D02448416800208847214859
:1007900040684006C00F002807D01F488068002826
:1007A00003D01D488168002088471A484068000629
:1007B000C00F00282DD01848C068002829D016483E
:1007C000C1680020884724E012480069002811D041
:1007D00010480069C4B210480069002803D00E48D0
:1007E0000169204688470B490969491EC8B200F0D3
:1007F00085F80EE00948C06A01280AD1002007499F
:10080000C86205484069002803D0034841690020B8
:10081000884710BD00001840100500204001184016
:10082000F8B507460E46022F01D3002E02D1002054
:10083000C043F8BD012411E030466043014638460C
:10084000FFF7A1FD0546012D07D9012000068542CD
:1008500003D2601E00062843EBE7641CFF2CEBD993
:100860000020C043E5E7000010B5C1000D4A515813
:10087000002915D1C1100C4A525C4407640F0123B2
:10088000A3409A43084B5A541A46525C002A06D198
:1008900001228A40054B1B789343044A137000BF22
:1008A00010BD0000B40D0020F0030020F403002070
:1008B00070B50546002D01DD032070BDFFF784FCF7
:1008C0000C48008886B2142068430B494418A1687C
:1008D0006068884202D10020606002E06068401CCD
:1008E0006060284602F09CF83046FFF77BFC002051
:1008F000E3E70000C0030020A009002070B5044613
:10090000002500F023FFC0B20546022801D10748A8
:1009100070BD0C2206486021694340184260601C8B
:10092000034960226A4388500020F1E78685FFFF73
:100930002000184010B50346002901DB102901DD15
:10094000054810BD9801054C0219906801248C409F
:10095000A04390600020F4E70189FFFF00400050B1
:1009600010B501460B0001F0F7FF3E202A414B5C19
:10097000747D7E94A4B4F1EFEEEDECEBEAE9E8E7E8
:10098000E6E5E4E3E2E1E0DFDEDDDCDBDAD9D8D77F
:10099000D6D5D4D3D2D1D0CFCECDCCCBCAC9C8C76F
:1009A000C6C5C4C3C2C1C0BFBEBD002005231B074E
:1009B000186358639863D863FA4B186071E3052095
:1009C0000007406B01231B03184305231B075863D3
:1009D000F448006901239B021843F24B1861184642
:1009E00000695B019843EF4B18615AE3052000074B
:1009F000006B03231B02184305231B07186350E3F6
:100A000005200007006B03239B02184305231B07E7
:100A10001863E44800690123DB029843E14B186145
:100A20003FE305200007806B0F23184305231B07B6
:100A300098631846006B0123DB03184305231B074B
:100A40001863D84800691F235B011843D54B186110
:100A500027E305200007C06BC023184305231B07AD
:100A6000D8631EE300BF062901D1062200E00E2252
:100A700005200007806B03239340184305231B07C1
:100A80009863C84800690123DB029843C54B18618D
:100A900007E305200007806B0F23184305231B077E
:100AA0009863C0480069FF23E1339843BD4B186148
:100AB000F7E205200007406B01239B021843052342
:100AC0001B075863B748006901231843B54B1861E9
:100AD000E7E205200007806B3023184305231B073E
:100AE0009863DEE2DBE264E282E248E246E213E29D
:100AF00011E2D9E1D7E1B7E1B5E141E20DE2D4E19C
:100B0000B3E1A6E165E163E161E15FE15DE15BE144
:100B10004AE137E129E117E106E1F5E0E4E0D9E057
:100B2000CCE0C4E0A3E0AEE0ACE0AAE0A8E0A6E040
:100B3000A4E0B0E092E088E07EE073E062E057E09D
:100B40004DE037E02DE022E011E0FFE7052000074F
:100B5000806B0F231B02184305231B0798639148E2
:100B600000690123DB0298438E4B186199E205204E
:100B70000007406B01235B02184305231B075863E2
:100B80008848006902231843864B186189E20520D2
:100B90000007806B03231B03184305231B0798637F
:100BA0007FE205200007C06B0F23184305231B07B6
:100BB000D86376E205200007006B802318430523E5
:100BC0001B0718637748006904231843754B1861A5
:100BD000184600695B019843724B186161E2052079
:100BE0000007C06B3023184305231B07D86358E266
:100BF00005200007C06B0F231B02184305231B07AA
:100C0000D8634EE205200007406B01239B03184385
:100C100005231B0758636348006908231843614B89
:100C200018613EE205200007C06B03231B03184335
:100C300005231B07D86334E205200007806B0F23D0
:100C4000184305231B0798632BE205200007C06BA0
:100C50000223184305231B07D86322E2052000075F
:100C6000C06B0423184305231B07D86319E24D48C2
:100C70000069042398434B4B186100BF00BF00BFBD
:100C800000BF00BF00BF474800690123DB02984353
:100C9000444B186100BF05200007006B0B46173B53
:100CA00001249C40204305231B071863F9E13D48BC
:100CB0000069082398433B4B186100BF05200007DB
:100CC000436B084611380124844023430520000764
:100CD0004363E6E105200007406BFF23013318431F
:100CE00005231B075863DCE105200007406B012347
:100CF0005B02184305231B0758632A480069022337
:100D00009843284B1861CCE105200007406B012374
:100D10009B02184305231B075863224800694008BB
:100D20004000204B1861BCE105200007406B012307
:100D3000DB02184305231B0758631A480069102378
:100D40009843184B1861ACE105200007406B012364
:100D5000DB03184305231B0758631248006901236E
:100D60001B0618430F4B18619BE10E4800682023B7
:100D700018430C4B186018460069DB041843094BF4
:100D800018618EE105200007406B042318430523FA
:100D90001B0758630348006901239B061843014B56
:100DA00018617EE14000005005200007406B0823D9
:100DB000184305231B075863BB4800690123DB0662
:100DC0001843B94B18616CE100BF00BF00BF00BF02
:100DD00000BF292903DB2B2901DC002200E00422CB
:100DE000292901D02C2910D105200007406B0F23A1
:100DF0009340184305231B075863AB480069012340
:100E0000DB029843A84B186122E02A2901D02D2942
:100E100009D105200007406B0323934018430523A5
:100E20001B07586314E02B2901D02E2910D105206F
:100E30000007406B931C03249C40204305231B07A1
:100E40005863994800690123DB029843964B186167
:100E500027E105200007C06B03239B0318430523EC
:100E60001B07D8631DE100BF00BF302908D1052052
:100E70000007006B0B02184305231B0718630AE0E9
:100E800005200007036B08462838012484402343CB
:100E9000052000070363844800690123DB029843AF
:100EA000814B1861FDE000BF00BF312916D105203C
:100EB0000007006B03239B03184305231B071863DC
:100EC0007948006901235B029843774B1861184603
:100ED00000695B019843744B18611BE00520000713
:100EE000036B08462838012484402343052000076B
:100EF0000363362907D16C4800690123DB0298435C
:100F0000694B186106E06848006901235B02984359
:100F1000654B1861C5E000BF00BF322915D105201F
:100F20000007406B0123DB02184305231B075863AE
:100F30005D480069102318435B4B18611846006830
:100F400020231843584B186017E038290FD105208B
:100F50000007406B0123DB02184305231B0758637E
:100F600051480069102318434F4B186105E04E4863
:100F70000068202318434C4B186092E000BF00BF6C
:100F8000332906D14848006803231843464B1860AC
:100F90000EE03A2906D14448006801231843424B29
:100FA000186005E040480068022318433E4B186073
:100FB00077E005200007406B0C23184305231B072F
:100FC00058633948006903235B031843364B1861A3
:100FD00005200007006B354B184305231B071863DA
:100FE00031480069FF231B0418432F4B186100BFD1
:100FF0003C291ED105200007406B0C239843052394
:101000001B0758632848006903235B039843264B5A
:10101000186105200007006B244BDB4318400523B3
:101020001B07186320480069FF231B0498431E4BCD
:1010300018611D4800690323DB0218431A4B18612D
:1010400005200007806BFF230133184305231B078E
:1010500098631846006B03239B02184305231B0764
:1010600018631846406BC023184305231B075863B9
:101070001846006BC023184305231B071863184646
:10108000806B0B4B184305231B0798631846406B76
:1010900003231B03184305231B07586301E005487E
:1010A00010BD00BF0020FBE7400000503E70000074
:1010B000C0C000000189FFFF10B50346002901DB15
:1010C000102901DD054810BD9801054C02199068F2
:1010D00001248C40204390600020F4E70189FFFF49
:1010E0000040005000487047001BB70070B5002555
:1010F000164800694007400F002801D1144D1AE03E
:10110000124800694007400F012801D1C50312E0D1
:101110000E4800694007400F022803D100F01EF876
:10112000054608E0094800694007400F032801D13F
:10113000084D00E0084D054880690007000F441C79
:1011400021462846FFF71FF970BD0000000200503D
:10115000001BB70010270000008051017FB500255B
:10116000184B0FCB6C460FC41748006A0003C00F22
:10117000002801D0154C00E0154C1348006AC0034C
:10118000C00F002801D0002519E00F4A126A92040E
:10119000D20E911C0C4A126AD205D20D921C6243E7
:1011A0001046FFF7F0F806460748006A0004800F73
:1011B00080006A4611583046FFF7E5F80546284694
:1011C00004B070BDD42E0000000200500080510118
:1011D000001BB70070B50446002C06D0012C05D0CA
:1011E000022C04D0032C1AD102E000BF00BF00BFC4
:1011F000A0000C4908580C49451828684903884341
:10120000401828602146083148B2022100F058FDFC
:101210002146083148B200F049FD002070BD034866
:10122000FCE70000E42E0000000001400197FFFFF2
:101230000120044908600449086004490860044921
:10124000086070477C00002080000020840000209F
:1012500088000020F7B582B00F46164600200190A6
:101260000298002806D001284BD002287ED00328FF
:101270007DD1D5E09C480068012803D19B480068D7
:10128000002802D09A4805B0F0BD012097490860B7
:101290009848806804218843001D96498860002092
:1012A000954908600846806840084000401C8860F6
:1012B000002505E0002114206843904A11506D1C60
:1012C000002DF7D000208E4908608E48076000206E
:1012D00000F050FA39460090FFF7A2FA0446601C6D
:1012E000002802D18248401ECDE72002000A824930
:1012F0004860200E01990843F10608437E490860C2
:10130000D7E081480068012803D1804800680028A0
:1013100001D07748B7E701207C49086075488068AC
:1013200008218843083073498860002072490862A8
:101330000846806A40084000401C8862002505E09D
:10134000002114206843724A11506D1C002DF7D003
:1013500000207049086070480760012000F00AFA18
:1013600039460090FFF75CFA044601E012E09DE088
:10137000601C002802D15E48401E84E72002000A5B
:101380005D494862200E01990843F10608435A4915
:1013900008628EE061480068012803D16048006857
:1013A000002801D052486EE701205D49086051488D
:1013B00080681021884310304E49886000205949C8
:1013C00008600846806840084000401C886000258E
:1013D00005E0002114206843534A11506D1C002D74
:1013E000F7D000205149086051480760022000F002
:1013F000C1F939460090FFF713FA0446601C002833
:1014000002D13B48401E3EE72002000A45494860A1
:10141000200E01990843F10608434249086048E05C
:1014200044480068012803D143480068002801D0DF
:101430002F4828E70120404908602E488068202175
:10144000884320302B4988600020364908620846CE
:10145000806A40084000401C8862002505E00021A9
:1014600014206843354A11506D1C002DF7D0002020
:101470003349086033480760032000F07BF93946A0
:101480000090FFF7CDF90446601C002802D11848EF
:10149000401EF8E62002000A22494862200E019907
:1014A0000843F10608431F49086202E01048801E05
:1014B000E9E600BF022E15D10298002806D00128C7
:1014C00005D0022804D0032809D102E000BF00BFE4
:1014D00000BF02992131C8B2FFF742FA00BF0448A9
:1014E000801ED0E60020CEE67C0000208C0000208C
:1014F0000397FFFF00020050000001406406002037
:10150000AC000020CC0000208000002090000020D3
:1015100078060020B0000020D000002084000020C9
:1015200094000020000011408C060020B400002030
:10153000D40000208800002098000020A006002091
:10154000B8000020D80000200146002906D001295B
:1015500005D0022904D003290FD102E000BF00BF4B
:1015600000BF8800064B1858064BC21810689B0332
:101570009843C0181060002070470348FCE7000043
:10158000E42E0000000001400197FFFF10B501208C
:1015900080030549086205480068002802D0034816
:1015A0000068804710BD000040400050140000203B
:1015B00010B50120C00305490862054800680028ED
:1015C00002D003480068804710BD00004040005032
:1015D0001800002000250124114805681FE010486C
:1015E0000068854210D00E48006800280CDB0C48CB
:1015F00000680A2808DA0A48056801F0BBF92146A4
:10160000002001F047FC0AE0054800680A2806DBD4
:1016100003480068142802DA641C01F0C5F8DEE70C
:10162000FC040020002502241248056820E011482F
:101630000068002808DB0F4800680A2804DA641CE8
:101640000020FEF7EFFF13E00A4800680A280FDBCE
:101650000848006814280BDA06480068854207D05D
:101660000448056801F086F92146012001F012FCCA
:10167000DDE70000FC04002010B5402001F008F96F
:1016800001F078F90321022001F004FC502103202D
:1016900000F082FE002400E0641C06488442FBDB6C
:1016A000002400E0641C03488442FBDB01F07CF86A
:1016B00010BD000060EA0000704700001CB50E4835
:1016C000006A01900C484030006A009003218903B1
:1016D0000098884300900849019808620649403103
:1016E0000098086205480068002804D0034A009961
:1016F0000198126890471CBD004000500C0000206B
:101700000EB51048006A02900E484030006A019001
:101710000C488030006A00900A4902980862094922
:1017200040310198086207498031009808620648F4
:101730000068002805D0044B009A019902981B68A4
:1017400098470EBD80400050100000200848006AF5
:101750000004C00F002800D1704705482030006EFB
:101760000004C00F002801D10120F5E70220F3E7B3
:10177000000018401CB5044600200090002C05D045
:10178000012C03D0022C01D0032C27D1164840692C
:10179000A1000831C8404107490F0191684600790E
:1017A000002803D1FFF79EFC00901AE068460079FC
:1017B000012802D1C003009013E068460079022896
:1017C00003D1FFF793FC00900BE0684600790728EF
:1017D00002D10648009004E005481CBD0448401EA4
:1017E000FBE70098F9E7000000020050008051017B
:1017F0000297FFFF10B51C48C4684069C007C00FBE
:1018000000280FD01848406940084000401C164985
:1018100048611648C068002824D01448C168204692
:1018200088471FE0002C0AD0382C11D10F4840689F
:10183000002803D00D4841682046884711E00B4836
:101840008068002803D0094881682046884708E05E
:1018500006480068002803D00448016820468847ED
:1018600000BF00BF10BD000000000240280500209E
:1018700010B51C48C4684069C007C00F00280FD0CD
:101880001848406940084000401C16494861164805
:10189000C068002824D01448C168204688471FE04B
:1018A000002C0AD0382C11D10F484068002803D0F2
:1018B0000D4841682046884711E00B4880680028A1
:1018C00003D0094881682046884708E00648006838
:1018D000002803D0044801682046884700BF00BFA5
:1018E00010BD0000000012403805002010B55C4813
:1018F000C4680420204000286ED00120000420404D
:10190000002812D056488068C005C00F00280CD0AF
:101910005448C068002803D05248C1682046884710
:10192000012000044E49C86098E001204004204096
:10193000002812D04A4880688005C00F00280CD0CB
:1019400048480069002803D0464801692046884776
:10195000012040044249C86080E001208005204009
:10196000002812D03E4880680005C00F00280CD027
:101970003C488069002803D03A488169204688475E
:10198000012080053649C86068E00120C00520407C
:10199000002812D032488068C004C00F00280CD044
:1019A0003048C069002803D02E48C16920468847C6
:1019B0000120C0052A49C86050E0294880684005D8
:1019C000C00F00284AD027484069002846D0254843
:1019D00041692046884741E00220204000283DD050
:1019E000FF2001302040002812D01D488068C00729
:1019F000C00F00280CD01B480068002803D01948ED
:101A0000016820468847FF2001301549C86025E05D
:101A1000012040022040002812D011488068800731
:101A2000C00F00280CD00F484068002803D00D4894
:101A3000416820468847012040020949C8600DE0FE
:101A4000074880684007C00F002807D00548806815
:101A5000002803D0034881682046884710BD000055
:101A600000001A4048050020002070478348806825
:101A70000121C90388434018804988600520000778
:101A8000C06889018843401805210907C8600846D5
:101A9000C0680121C903884305210907C8600846B9
:101AA000C06BFF2101318843401805210907C86335
:101AB0000846C06B012149028843401805210907E7
:101AC000C8630846C06B0121C9028843401805213C
:101AD0000907C8636A48C06800680121C9028843D1
:101AE00040186749C96808606548C0680068F821FF
:101AF000884348306249C96808606148C068006826
:101B000004218843001D5E49C96808605C48C068BC
:101B10004068000C0004C01C5949C9684860584816
:101B2000C068806880088000401C5549C96888608A
:101B3000EB205349C96808625148C06800684008F2
:101B40004000401C4E49C968086000BF4C48C0684E
:101B50000068C007C00F0028F8D14948C0688068F5
:101B6000800880004649C96888604548C068806828
:101B700080088000401C4249C96888608120404933
:101B8000C96808623E48C068006840084000401CC0
:101B90003B49C968086000BF3948C0680068C00791
:101BA000C00F0028F8D1A0203549C9680862344820
:101BB000C068006840084000401C3149C96808609E
:101BC00000BF2F48C0680068C007C00F0028F8D1C8
:101BD0002B48C0688068800880002949C9688860EF
:101BE0002748C068806880088000401C2449C96874
:101BF0008860C0202249C96808622148C06800681E
:101C000040084000401C1E49C968086000BF1C48CD
:101C1000C0680068C007C00F0028F8D11848C06825
:101C20008068800880001649C96888601448C068C8
:101C3000806880088000401C1149C9688860AF2016
:101C40000F49C96808620E48C06800684008400033
:101C5000401C0B49C968086000BF0948C06800689B
:101C6000C007C00F0028F8D10548C0688068800808
:101C700080000349C9688860704700000002005076
:101C8000F000002010B50020FEF712FE10BD00008D
:101C90000146CA00044BD01802681268026002684C
:101CA000002A00D142607047B40D0020C206D20E57
:101CB00001219140014A11607047000000E100E0FD
:101CC00010B5002819DA1A4A03071B0F083B9B08B6
:101CD0009B00D2588307DC0EFF23A3409A438B0757
:101CE0001B0E8407E40EA3401A43114B0407240F74
:101CF000083CA408A4001A5118E00E4A03231B0252
:101D0000D21883089B00D2588307DC0EFF23A34020
:101D10009A438B071B0E8407E40EA3401A43054B1E
:101D2000032424021B198408A4001A5110BD0000CA
:101D30001CED00E000E100E070B504462821606978
:101D4000484303494518284600F00EFF70BD0000C7
:101D5000B40E002010B5FFF76BFA01227D21C900F7
:101D60000020FFF777FA0020FFF734FA012211462E
:101D70000320FFF76FFA0320FFF72CFAFFF776FE38
:101D800000F00AFE10BD000001462039014A116032
:101D900070470000B803002010B50020FFF7D4FB07
:101DA0000320FFF7D1FB10BD1CB500200090254893
:101DB000C06801900020009040E000980002224995
:101DC000441801200099884001990840002832D029
:101DD000606AC007C00F002813D0606A4008400046
:101DE000401C60620C21009848431849085800289C
:101DF00021D00C22009850430A46115800208847F1
:101E000019E0606A8007C00F002814D0606A0221C0
:101E10008843801C60620C21009848430B4940189D
:101E20004068002807D00C22009850430A468018CA
:101E30004168002088470098401C009000980928BD
:101E4000BBDB1CBD008F00500080005068050020E7
:101E500010B50748C46903200549C86105480068F2
:101E6000002803D0204603490968884710BD0000B8
:101E7000000010401C00002070B559484468E0077D
:101E8000C00F002809D00120554948605548006816
:101E9000002802D0534908688047022020400028CB
:101EA00009D002204E4948604E488068002802D080
:101EB0004C498868804704202040002809D004202D
:101EC0004749486047480069002802D045490869E9
:101ED000804708202040002809D008204049486059
:101EE00040488069002802D03E49886980473C48C4
:101EF0000569466910202840002818D03A48006833
:101F0000002806D03648006938490840344908613D
:101F100006E033480069012109058843304908611A
:101F200030484068002802D02E4948688047012088
:101F300000052840002817D02B480068002806D04C
:101F4000274800692A4908402549086105E02448D6
:101F5000006910218843224908612248C06800288E
:101F600002D02049C868804710203040002818D08F
:101F70001D480068002806D0194840691B490840E0
:101F80001749486106E01648406901210905884360
:101F90001349486113484069002802D01149486933
:101FA0008047012000053040002817D00E48006807
:101FB000002806D00A4840690D4908400849486190
:101FC00005E00748406910218843054948610548F4
:101FD000C069002802D00349C869804770BD00006D
:101FE00040000440D4050020200000201F000F0006
:101FF0000F001F0070B559484468E007C00F002863
:1020000009D001205549486055480068002802D091
:1020100053490868804702202040002809D0022048
:102020004E4948604E488068002802D04C49886874
:10203000804704202040002809D0042047494860F8
:1020400047480069002802D04549086980470820B0
:102050002040002809D00820404948604048806955
:10206000002802D03E49886980473C480569466996
:1020700010202840002818D03A480068002806D0D0
:1020800036480069384908403449086106E0334859
:1020900000690121090588433049086130484068DA
:1020A000002802D02E4948688047012000052840BA
:1020B000002817D02B480068002806D02748006960
:1020C0002A4908402549086105E024480069102193
:1020D0008843224908612248C068002802D020496C
:1020E000C868804710203040002818D01D4800687C
:1020F000002806D0194840691B4908401749486123
:1021000006E01648406901210905884313494861E2
:1021100013484069002802D01149486980470120CE
:1021200000053040002817D00E480068002806D06F
:102130000A4840690D4908400849486105E00748D8
:10214000406910218843054948610548C069002855
:1021500002D00349C869804770BD000040001440A8
:10216000F4050020200000201F000F000F001F00BA
:1021700010B5074800684021884340300449086092
:1021800004480068002802D002480068804710BD5B
:10219000000200507800002010B51348C06A800784
:1021A000C00F00280ED002200F49C8620F480068F7
:1021B000401C0E4908600E480068002802D00C48F8
:1021C000006880470848C06AC007C00F002809D0CF
:1021D00001200549C86207480068002802D0054868
:1021E0000068804710BD0000008000402C000020E7
:1021F00024000020280000200249096801600149EC
:1022000008607047EC03002010B516480068C00352
:10221000C00F00280FD0134800680121090488432B
:1022200040181049086010484068002803D00E4A42
:102230009068516888470B48C06B0005C00F0028A4
:102240000FD00848C06B0121C902884340180549D6
:10225000C8630548C068002803D0034A1069D168E4
:10226000884710BD000003401406002010B5164832
:102270000068C003C00F00280FD013480068012178
:1022800009048843401810490860104880690028F4
:1022900003D00E4AD069916988470B48C06B00058E
:1022A000C00F00280FD00848C06B0121C902884325
:1022B00040180549C8630548006A002803D0034A4E
:1022C000506A116A884710BD004003401406002080
:1022D00010B516480068C003C00F00280FD013487F
:1022E000006801210904884340181049086010481B
:1022F000C06A002803D00E4A106BD16A88470B4889
:10230000C06B0005C00F00280FD00848C06B01212A
:10231000C902884340180549C8630548406B002836
:1023200003D0034A906B516B884710BD00001340E7
:102330001406002010B516480068C003C00F00281E
:102340000FD0134800680121090488434018104940
:1023500008601048006C002803D00E4A506C116CC5
:1023600088470B48C06B0005C00F00280FD00848F5
:10237000C06B0121C902884340180549C86305485C
:10238000806C002803D0034AD06C916C884710BD44
:102390000040134014060020F3B581B00546032D1C
:1023A00001D90320FEBD282068430F494618FDF7D8
:1023B0000BFF0E48008887B23046029900F0ACFB54
:1023C0000446FF2C02D100F015FC08E03846FDF76A
:1023D00009FF002C01D02046E4E72046E2E738461A
:1023E000FDF700FF0020DDE7B40E0020C003002051
:1023F0003B4AD268926892089200521C384BDB68C4
:102400009A60B0220243364BDB681A62344AD268C3
:10241000126852085200521C314BDB681A6000BF30
:102420002F4AD2681268D207D20F002AF8D12C4A5C
:10243000D268926892089200294BDB689A60284A19
:10244000D268926892089200521C254BDB689A6011
:102450000A06120F10231A43214BDB681A62204A26
:10246000D268126852085200521C1D4BDB681A6079
:1024700000BF1B4AD2681268D207D20F002AF8D1D7
:10248000174AD268926892089200154BDB689A60EE
:10249000134AD268926892089200521C104BDB6873
:1024A0009A600A07120F0E4BDB681A620C4AD26858
:1024B000126852085200521C094BDB681A6000BFB8
:1024C000074AD2681268D207D20F002AF8D1044A0C
:1024D000D268926892089200014BDB689A6070475C
:1024E000F0000020044672B60A48047000F0E8FBD1
:1024F00000F032FB00F0FAFA00F0DAFA0648006861
:1025000006490860FFF7B0FA00F074FB62B600BF3E
:10251000FEE70000A7030020B40D0020E003002028
:102520007047000010B5224800688000C00F0028E6
:102530000CD01F488068C007C00F002806D01C4878
:10254000806840084000401C19498860184840696C
:102550000007C00F002812D0154840698006C00F40
:1025600000280CD012488069C007C00F002806D090
:102570000F48806940084000401C0D4988610D48A3
:102580000068002810D00B488068401E0949886008
:1025900008468068002807D10A461069D168884734
:1025A00004484068034988600020FEF781F910BDA7
:1025B000000001406406002010B52348006A800036
:1025C000C00F00280CD02048806AC007C00F002828
:1025D00006D01D48806A40084000401C1A498862A5
:1025E0001948406B0007C00F002812D01648406BF6
:1025F0008006C00F00280CD01348806BC007C00FA6
:10260000002806D01048806B40084000401C0E494E
:1026100088630E480068401C0C4908600C4800683C
:10262000002810D00A488068401E09498860084682
:102630008068002807D10A461069D1688847044895
:1026400040680349886010BD00000140B0000020D0
:102650007806002010B5234800688000C00F0028CD
:102660000CD020488068C007C00F002806D01D4845
:10267000806840084000401C1A4988601948406939
:102680000007C00F002812D0164840698006C00F0E
:1026900000280CD013488069C007C00F002806D05E
:1026A0001048806940084000401C0E4988610E486F
:1026B0000068401C0C4908600C480068002810D0D5
:1026C0000A488068401E09498860084680680028DA
:1026D00007D10A461069D168884704484068034911
:1026E000886010BD00001140B40000208C0600205E
:1026F00010B52948006A8000C00F00280CD0264879
:10270000806AC007C00F002806D02348806A4008AE
:102710004000401C204988621F48406B0007C00FE2
:10272000002812D01C48406B8006C00F00280CD037
:102730001948806BC007C00F002806D01648806B70
:1027400040084000401C1449886314480068401C3D
:102750001249086012480068002810D010488068AC
:10276000401E0F49886008468068002807D10A4645
:102770001069D16888470A48406809498860094853
:102780000068401C0749086008460068142801DBFF
:102790000020086010BD000000001140B8000020BB
:1027A000A0060020FC04002010B51348006844680F
:1027B00012480068002801D0022010BD72B6022025
:1027C000205EFFF765FA0C480068FFF715FD022050
:1027D000205EFEF749F86078401E6070607800283F
:1027E00002D00620207001E003202070208B608042
:1027F00000F0C2FA0020E0E7E0030020A803002078
:1028000070B50A48C4690A48C5690A4800680028C2
:1028100003D0204607490968884707480068002810
:1028200003D0284604490968884770BD0000054068
:1028300000401540E4000020EC00002010B50548E1
:10284000C46905480068002803D020460249096889
:10285000884710BD00001540E800002008B50A4870
:1028600000688006C00F0090074800680821884370
:1028700008300549086005480068002803D003496E
:1028800000980968884708BD00400040E00000202B
:1028900070B50446164800684068007B80210840F7
:1028A000002801D1012070BD12480068002801D025
:1028B0000620F8E710480068002801D00220F2E75F
:1028C000FDF782FC0D48008885B209480068406821
:1028D000C461074800684068006A2040002801D1B0
:1028E00000F094FA2846FDF77DFC0020DBE70000AD
:1028F000E0030020E4030020A8030020C003002020
:102900001449C968896889088900491C114AD26834
:102910009160FF21013101430E4AD26811620D49D5
:10292000C968096849084900491C0A4AD268116007
:1029300000BF0849C9680968C907C90F0029F8D14B
:102940000449C968896889088900024AD268916087
:1029500070470000F000002030B47446641E2578F3
:10296000641CAB4204D3635D5B00E31830BC1847C2
:102970001D46F8E710B504210220FDF7DBFF052115
:102980000220FDF7D7FF06210220FDF7D3FF072124
:102990000220FDF7CFFF10BD10B50024002108462E
:1029A000FFF726FD00BF03E00020FFF7A9FF641C2E
:1029B000212040018442F7DB0F20FFF7A1FF10BD6B
:1029C00010B500BF00201249086012490860592064
:1029D0001149086016200860882008600F480068C8
:1029E00040084000401C0D49086008460069C008C6
:1029F000C0000861002008490860FFF7ABF9FFF745
:102A0000CBF962B60020FFF76DFD002010BD00007D
:102A1000F8040020FC0400200001005000020050D7
:102A2000F8B5064600200090142070430A49471864
:102A30003C6809E03946204600F010F80546FF2DB5
:102A400001D1012000902468002CF3D100980028C7
:102A500001D000F0CFF8F8BDA009002070B5044601
:102A60000D460026E068696888421FD12046FFF7BE
:102A700063F90646206900280BD161682068086068
:102A80002068002802D021686068486000206060EB
:102A90000CE0686821694018E060E068A968884235
:102AA00004D9E168A868401C081AE060304670BD8F
:102AB000002013E01C2141430A4A8918C2000A4B36
:102AC000D3180CCB8B614A611C214143054A8A18FB
:102AD0001C214143034BC9188A60401C0128E9DBD3
:102AE00070470000840900209803002010B50020E2
:102AF0000BE014214143064A8A180C214143054B3F
:102B0000CC181ACC08321AC2401C0128F1DB10BDC7
:102B1000A00900208C03002070B504460D46207BE0
:102B200080210840002801D1012070BD20780328B1
:102B300001D10720F9E7206A284320622078012884
:102B400008D1216AE0690840002803D0204600F03F
:102B500075F9EAE70020E8E7014802490880704774
:102B6000940D0020B403002010B5044620780328FB
:102B700011D06178A07E81420BDA2046FDF78EFDF0
:102B8000002804D16078401C6070002010BD042033
:102B9000FCE70420FAE7002020622046FDF77EFDD6
:102BA000042800D1F2E70120607006202070022086
:102BB000205E0D490968496802228A5E904211DD53
:102BC000094800684068007B40210840002809D17E
:102BD00006480068002803D001200549086001E08C
:102BE000FF20D3E70020D1E7E0030020A803002066
:102BF000E803002070B52B480068002800D070BDA5
:102C000029480068002800D0F9E7284805682848C6
:102C100028490978405CC6002549264A1278895C13
:102C2000254A515C224A515C0E43F0002349085862
:102C30001E490860084600684468084600688542E6
:102C40002ED06968486AFDF78FFA002800D0D6E7D1
:102C50006868007B80210840002804D16968496ABF
:102C60000868FFF791F8207804210840002814D064
:102C7000207888432070207B80210840002803D0E2
:102C80002069FDF79FFA01E0FDF796FA62B6074961
:102C9000096849684868804702E0606AFDF779FA88
:102CA00000BFACE7E4030020A8030020E0030020FD
:102CB000F5030020F4030020F0030020B40D0020F1
:102CC00070B500202449086024490870002507E0F9
:102CD000681CC00022494018E900214A50506D1C70
:102CE000042DF5D31E481F4908601F4C00252BE01A
:102CF000182068431D4A81181822201DFDF7ECFAA0
:102D0000208B6080207B08210840002807D02046C7
:102D1000FDF7C4FC012060700620207001E0032054
:102D200020703C206843124940186062207B80215B
:102D30000840002806D023696269991A10460D4A96
:102D4000FDF718FB28346D1C052DD1D30221064850
:102D5000A030017070BD0000E4030020F4030020E7
:102D6000A8100020EC030020B40E0020F42E000078
:102D70007C0F00205555555570B51F481F490978DF
:102D8000405CC0001C491D4A1278895C1C4A515C99
:102D9000194A515C08430546E8001A4908581A497F
:102DA000086008460068446820780421084000282C
:102DB00014D0207888432070207B80210840002890
:102DC00003D02069FDF7FEF901E0FDF7F5F962B6E1
:102DD0000D4909684968486880470BE0207B8021DD
:102DE0000840002803D1616A0868FEF7CDFF606AD9
:102DF000FDF7CFF970BD0000F5030020F4030020BB
:102E0000F0030020B40D0020E003002010B50A48B4
:102E100000684468012020700220205EFEF738FF21
:102E200005480068FFF7E8F90220205EFDF71CFD69
:102E3000FFF7E0FE10BD0000E003002010B50446DF
:102E40002046FDF72BFC042800D110BD0220207085
:102E5000205E0D490968496802228A5E904211DDB0
:102E6000094800684068007B40210840002809D1DB
:102E700006480068002803D001200549086001E0E9
:102E8000FF20E2E70020E0E7E0030020A8030020A5
:102E9000E8030020F8B505460E460D48875D00247E
:102EA0000FE0F807C00F002804D021460420FEF7E9
:102EB00003F903E021460420FDF73CFD7F10601C70
:102EC000C4B2082CEDDB291D0220FEF7F5F8F8BD91
:102ED00000010020010000000200000002000000CC
:102EE00004000000000000002000000000001000AE
:102EF00020001000D5150000000000008000000038
:102F00002B070020B406002003000A00251600004D
:102F10000100000088000000A30700202C0700200B
:102F200002000A007916000002000000880000007C
:102F30001B080020A407002000000000B9160000B4
:102F40000300000088000000930800201C080020F7
:102F50000000000000000000040000000800000065
:102F60000000000000000000000000000000000061
:102F7000A003002006000000000000000100000087
:102F8000A60300200100000001000000AC2F00009B
:102F9000000000200405000004010000B03400001F
:102FA000040500202C10000020010000000000009B
:102FB0000000000000000000000000000000000011
:102FC0000000000000000000000000000000000001
:102FD00000000000000000000000000000000000F1
:102FE00000000000000000000000000000000000E1
:102FF00000000000000000000000000000000000D1
:1030000000000000000000000000000000000000C0
:1030100000000000000000000000000000000000B0
:1030200000000000000000000000000000000000A0
:103030000000000000000000000000000000000090
:103040000000000000000000000000000000000080
:103050000000000000000000000000000000000070
:103060000000000000000000000000000000000060
:103070000000000000000000000000000000000050
:103080000000000000000000001BB700000000006E
:1030900000000000000000000000000000000340ED
:1030A00000401340000013400040134082EE0746EA
:1030B0006A5212E6026200000202020202020202E8
:1030C00002020202020202020202020202020202E0
:1030D00002020202020202020202020202020202D0
:1030E00002020202020202020202020202020202C0
:1030F00002020202020202020202020202020202B0
:10310000020202020202020202020202020202029F
:10311000020202020202020202020202020202028F
:10312000020202020202020202020202020202027F
:103130000202020202020202F12600000000000068
:10314000000000000000000000000000000000007F
:10315000000000000000000000000000000000006F
:10316000000000000000000000000000000000005F
:10317000000000000000000000000000000000004F
:10318000000000000000000000000000000000003F
:10319000000000000000000000000000000000002F
:1031A000000000000000000000000000000000001F
:1031B000000000000000000000000000000000000F
:1031C00000000000000000000000000000000000FF
:1031D00000000000000000000000000000000000EF
:1031E00000000000000000000000000000000000DF
:1031F00000000000000000000000000000000000CF
:1032000000000000000000000000000000000000BE
:1032100000000000000000000000000000000000AE
:10322000000000000000000000000000000000009E
:10323000000000000000000000000000000000008E
:10324000851C0000000000000000000000000000DD
:10325000000000000000000000000000000000006E
:10326000000000000000000000000000000000005E
:10327000000000000000000000000000000000004E
:10328000000000000000000000000000000000003E
:10329000000000000000000000000000000000002E
:1032A000000000000000000000000000000000001E
:1032B000000000000000000000000000000000000E
:1032C00000000000000000000000000000000000FE
:1032D00000000000000000000000000000000000EE
:1032E00000000000000000000000000000000000DE
:1032F00000000000000000000000000000000000CE
:1033000000000000000000000000000000000000BD
:1033100000000000000000000000000000000000AD
:10332000000000000000000000000000000000009D
:103330000000000000000000FF7F0000010000000E
:10334000010000000000000000000000000000007C
:10335000000000000000000000000000000000006D
:10336000000000000000000000000000000000005D
:10337000000000000000000000000000000000004D
:10338000000000000000000000000000000000003D
:10339000000000000000000000000000000000002D
:1033A00000000001010202020203030303030303FE
:1033B00003040404040404040404040404040404CE
:1033C00004050505050505050505050505050505AE
:1033D000050505050505050505050505050505059D
:1033E000050606060606060606060606060606067E
:1033F000060606060606060606060606060606066D
:10340000060606060606060606060606060606065C
:10341000060606060606060606060606060606064C
:10342000060707070707070707070707070707072D
:10343000070707070707070707070707070707071C
:10344000070707070707070707070707070707070C
:1034500007070707070707070707070707070707FC
:1034600007070707070707070707070707070707EC
:1034700007070707070707070707070707070707DC
:1034800007070707070707070707070707070707CC
:1034900007070707070707070707070707070707BC
:1034A0000700000000000000000000000000000015
:0400000500000311E3
:00000001FF
